:1000000014C02CC02BC02AC029C028C027C026C0BD
:1000100025C024C023C022C021C0A1C01FC01EC053
:100020001DC01CC01BC01AC02BC011241FBECFEDA9
:10003000CDBF10E0A0E6B0E0E8E0F2E002C005903D
:100040000D92A236B107D9F720E0A2E6B0E001C0D8
:100050001D92A636B207E1F7A7D0D4C0D1CF8BB797
:1000600080618BBF2D9A80B7826080BF83B7856027
:1000700083BF84EF86BF89B7816089BF7894089574
:100080001F920F920FB60F9211242F933F934F930D
:100090005F936F937F938F939F93AF93BF93EF93F0
:1000A000FF93CF93DF931F92CDB7DD2716B880B3B0
:1000B0008CD08983898185FD3EC088B3882329F04F
:1000C000809162008F5F8093620080916200833034
:1000D00010F01092620010926300809162008130F3
:1000E000A9F058F08230D1F488B3807E88BB82B307
:1000F000807E82BBC29A929A11C088B3807E88BBF0
:1001000082B3807E82BBC09A909A08C088B3807EFA
:1001100088BB82B3807E82BBC19A919A898185FD1A
:100120000AC080B352D0898381EE94E00197F1F741
:1001300000C00000F3CF0F90DF91CF91FF91EF91BE
:10014000BF91AF919F918F917F916F915F914F91EF
:100150003F912F910F900FBE0F901F9018951F92F7
:100160000F920FB60F9211248F939F93C29A809192
:1001700063008F5F883218F48093630007C0109289
:10018000630088B3807E88BB8FE086B983EC99E0FA
:100190000197F1F700C00000C2989F918F910F90D6
:1001A0000FBE0F901F90189587E087BB83E081BB3F
:1001B00080E282BB54DF85B78F7A85BF85B78062C6
:1001C00085BF889585B78F7DF8CF40916000542F0B
:1001D000582760916400282F252330916500962FC1
:1001E0009327392F322330936500962F90959223D1
:1001F00090936400932B90959523892F8427809367
:0802000060000895F894FFCF9F
:02020800FF00F5
:00000001FF
