:1000000014C02CC02BC02AC029C028C027C026C0BD
:1000100025C024C023C022C021C0A9C01FC01EC04B
:100020001DC01CC01BC01AC02EC011241FBECFEDA6
:10003000CDBF10E0A0E6B0E0E0E0F2E002C0059045
:100040000D92A236B107D9F720E0A2E6B0E001C0D8
:100050001D92A636B207E1F7A6D0D0C0D1CF8BB79C
:1000600080618BBF2D9A80B7826080BF83B7856027
:1000700083BF84EF86BF89B7816089BF789485B7D5
:10008000806585BF08951F920F920FB60F921124BD
:100090002F933F934F935F936F937F938F939F9390
:1000A000AF93BF93EF93FF93CF93DF931F92CDB79F
:1000B000DD2785B78F7A85BF80B383D08983898117
:1000C00085FD41C088B3882329F0809162008F5F4D
:1000D0008093620080916200853010F0109262007F
:1000E0001092630088B3807E88BB82B3807E82BB1F
:1000F00080916200823091F038F4882361F0813081
:1001000099F4C19A919A12C0833059F0843061F405
:10011000C49A949A0BC0C09A909A08C0C29A929AB4
:1001200005C0C39A939A02C08FEF88BB898185FD71
:100130000AC080B346D0898381EE94E00197F1F73D
:1001400000C00000F3CF0F90DF91CF91FF91EF91AE
:10015000BF91AF919F918F917F916F915F914F91DF
:100160003F912F910F900FBE0F901F9018951F92E7
:100170000F920FB60F9211248F93809163008F5FBF
:100180008C3018F48093630008C01092630088B329
:10019000807E88BB85B7806585BF8F910F900FBE2D
:1001A0000F901F9018958FE187BB81BB80E282BBC7
:1001B00056DF85B7806285BF889585B78F7D85BFFF
:1001C000F8CF40916000542F582760916400282F89
:1001D000252330916500962F9327392F32233093B2
:1001E0006500962F9095922390936400932B9095A1
:1001F0009523892F8427809360000895F894FFCF7A
:02020000FF00FD
:00000001FF
