:1000000014C02CC02BC02AC029C028C027C026C0BD
:1000100025C024C023C022C021C0A1C01FC01EC053
:100020001DC01CC01BC01AC02BC011241FBECFEDA9
:10003000CDBF10E0A0E6B0E0E2EFF1E002C0059035
:100040000D92A236B107D9F720E0A2E6B0E001C0D8
:100050001D92A636B207E1F79DD0C9C0D1CF8BB7AC
:1000600080618BBF2D9A80B7826080BF83B7856027
:1000700083BF84EF86BF89B7816089BF7894089574
:100080001F920F920FB60F9211242F933F934F930D
:100090005F936F937F938F939F93AF93BF93EF93F0
:1000A000FF93CF93DF931F92CDB7DD2716B880B3B0
:1000B00081D08983898185FD3EC088B3882329F05A
:1000C000809162008F5F8093620080916200853032
:1000D00010F0109262001092630088B3807E88BB9B
:1000E00082B3807E82BB80916200823091F038F4CE
:1000F000882361F0813091F4C19A919A0FC08330C6
:1001000059F0843059F4C49A949A08C0C09A909ACD
:1001100005C0C29A929A02C0C39A939A898185FDBA
:100120000AC080B347D0898381EE94E00197F1F74C
:1001300000C00000F3CF0F90DF91CF91FF91EF91BE
:10014000BF91AF919F918F917F916F915F914F91EF
:100150003F912F910F900FBE0F901F9018951F92F7
:100160000F920FB60F9211248F93809163008F5FCF
:10017000883218F48093630007C01092630088B33C
:10018000807E88BB8FE086B98F910F900FBE0F9055
:100190001F9018958FE187BB81BB80E282BB5FDF38
:1001A00085B78F7A85BF85B7806285BF889585B70B
:1001B0008F7DF8CF40916000542F582760916400E4
:1001C000282F252330916500962F9327392F32232E
:1001D00030936500962F9095922390936400932B13
:1001E00090959523892F8427809360000895F89433
:0201F000FFCF3F
:0201F200FF000C
:00000001FF
