:1000000014C02CC02BC02AC029C028C027C026C0BD
:1000100025C024C023C022C021C020C01FC01EC0D4
:100020001DC01CC01BC01AC020C011241FBECFEDB4
:10003000CDBF10E0A0E6B0E0E4E7F1E002C005903B
:100040000D92A436B107D9F720E0A4E6B0E001C0D4
:100050001D92A736B207E1F75FD08AC0D1CF8BB728
:1000600080618BBF2D9A789408951F920F920FB6DE
:100070000F9211242F933F934F935F936F937F932E
:100080008F939F93AF93BF93EF93FF93CF93DF93A0
:100090001F92CDB7DD2780B34ED08983898185FD3E
:1000A00027C0809164008F5F833018F480936400D0
:1000B00002C01092640080916400813049F028F001
:1000C000823049F48091610005C08091630002C0D4
:1000D0008091620088BB898185FD0AC080B32BD0E6
:1000E000898381EE94E00197F1F700C00000F3CF1F
:1000F0000F90DF91CF91FF91EF91BF91AF919F91C1
:100100008F917F916F915F914F913F912F910F90C0
:100110000FBE0F901F90189587E087BB80E282BBCF
:100120009EDF85B7806585BF85B7806285BF88956E
:1001300085B78F7DF8CF40916000542F582760918C
:100140006500282F252330916600962F9327392F9D
:10015000322330936600962F9095922390936500FA
:10016000932B90959523892F842780936000089581
:04017000F894FFCF31
:04017400FF04020181
:00000001FF
